:020000040000FA
:100000000C9447010C9478010C9478010C947801BD
:100010000C9478010C9478010C9478010C9478017C
:100020000C9478010C94AB090C94AB090C94AB09BB
:100030000C9478010C9478010C9478010C9478015C
:100040000C9478010C9478010C9478010C9478014C
:100050000C9478010C9478010C9478010C9461094B
:100060000C9478010C942B090C9401090C947801E0
:100070000C9478010C9478010C9478010C9478011C
:100080000C9478010C9478010C9478010C9478010C
:100090000C94CB080C94A1080C9478010C94780172
:1000A0000C9478010C9478010C9478010C947801EC
:1000B0000C9478010C9478010C9478010C947801DC
:1000C0000C9478010C9478010C9478010C947801CC
:1000D0000C9478010C9478010C9478010C947801BC
:1000E0000C9478010C9486170C94E5010C9435025D
:1000F0000C94FB020C94ED020C945D180C9412030A
:100100000C9416030C942E030C9428030C94F30205
:100110000C943C0A0C94D1010C94F3010C949501BD
:100120000C9487180C9402030C942F110C94200348
:100130000C9424030C94F7020C941A030C94D81713
:100140000C940C030C94C2010C9426170C94080315
:100150000C9432030C942A180C94E8180C94141183
:100160000C942D030C9482020C94FF0200002100D9
:10017000240027002A002D00300033000101000078
:10018000040107010A0100002200250028002B00BD
:100190002E003100340002010000050108010B01AE
:1001A000000020002300260029002C002F00320030
:1001B0000001000003010601090105050505070509
:1001C00008080808020202020A0A080804040404D3
:1001D00001010101010101010303030303030303FF
:1001E000040707070C0C0C0C0C0C0C0C020202028E
:1001F00006060606060606060B0B0B0B0B0B0B0B77
:100200000102102020080810204010204080020128
:10021000020108040201010204081020408080400D
:10022000201008040201800402018040201008040C
:1002300002010804020101020408102040800102AA
:1002400004081020408000000A0B02090C0D0E0863
:10025000070304010000000000000000000000008F
:10026000000000000000000000000000000000008E
:10027000000012111000000000000000000000004B
:100280000000000000000000000000003C0A1124F3
:100290001FBECFEFD1E2DEBFCDBF00E00CBF2AE032
:1002A000A4E4B6E001C01D92AC3BB207E1F716E052
:1002B000A0E0B2E0E8E4F8E300E00BBF02C0079082
:1002C0000D92A434B107D9F711E0C7E4D1E000E002
:1002D00006C021970109802FFE010E941A1CC63416
:1002E000D10780E00807A9F70E94470C0C94221C54
:1002F0000C940000482FE3EAF9E020E08FEF9FEF35
:10030000241791F03191832738E0BC016170772781
:1003100096958795672B21F051E0852750EA952720
:10032000315099F72F5FECCF0895AF92BF92CF92E3
:10033000DF92EF92FF920F931F93CF93DF936C01A5
:100340007B018B01040F151FEB015E01AE18BF0886
:10035000C017D10759F06991D601ED91FC91019038
:10036000F081E02DC6011995892B79F7C501DF9140
:10037000CF911F910F91FF90EF90DF90CF90BF90A2
:10038000AF900895FC01538D448D252F30E0842FCC
:1003900090E0821B930B541710F0CF9608950197AD
:1003A0000895FC01918D828D981761F0A28DAE0F9A
:1003B000BF2FB11D5D968C91928D9F5F9F73928F21
:1003C00090E008958FEF9FEF0895FC01918D828D4D
:1003D000981731F0828DE80FF11D858D90E008951A
:1003E0008FEF9FEF0895FC01918D228D892F90E072
:1003F000805C9F4F821B91098F73992708958FEF1F
:1004000098E00E94F30121E0892B09F420E0822F7B
:1004100008958AEB96E00E94F30121E0892B09F40C
:1004200020E0822F0895FC01A48DA80FB92FB11DE3
:10043000A35ABF4F2C91848D90E001968F7399271A
:10044000848FA689B7892C93A089B1898C918370F8
:1004500080648C93938D848D981306C00288F389F1
:10046000E02D80818F7D80830895EF92FF920F931E
:100470001F93CF93DF93EC0181E0888F9B8D8C8D50
:1004800098131AC0E889F989808185FF15C09FB744
:10049000F894EE89FF896083E889F9898081837007
:1004A000806480839FBF81E090E0DF91CF911F91B6
:1004B0000F91FF90EF900895F62E0B8D10E00F5FD7
:1004C0001F4F0F731127E02E8C8D8E110CC00FB6AD
:1004D00007FCFACFE889F989808185FFF5CFCE0145
:1004E0000E941302F1CFEB8DEC0FFD2FF11DE35AAB
:1004F000FF4FF0829FB7F8940B8FEA89FB898081C8
:100500008062CFCFCF93DF93EC01888D8823B9F041
:10051000AA89BB89E889F9898C9185FD03C080810E
:1005200086FD0DC00FB607FCF7CF8C9185FFF2CF8B
:10053000808185FFEDCFCE010E941302E9CFDF91CC
:10054000CF91089580E090E0892B29F00E94090264
:1005500081110E94000080E090E0892B29F00E9428
:10056000FF0181110E94000080E090E0892B49F09A
:1005700080E090E0892B29F00E94000081110E9408
:10058000000080E090E0892B49F080E090E0892B2A
:1005900029F00E94000081110C9400000895815000
:1005A000823108F05AC0E82FF0E08827E552FD4F6D
:1005B0008F4F0C941A1CFB02FF02ED02F302F702AC
:1005C0002D03020308030C03120316031A0320036E
:1005D00024032D0328032E033203809180008F779C
:1005E000809380000895809180008F7DF9CF809165
:1005F0008000877FF5CF84B58F7784BD089584B55B
:100600008F7DFBCF8091B0008F778093B0000895ED
:100610008091B0008F7DF9CF809190008F7780938B
:1006200090000895809190008F7DF9CF8091900087
:10063000877FF5CF8091A0008F778093A0000895E9
:100640008091A0008F7DF9CF8091A000877FF5CFAA
:10065000809120018F77809320010895809120015F
:100660008F7DF9CF80912001877FF5CFCF93DF93E6
:10067000282F30E0F901EA5BFD4F8491F901E05049
:10068000FE4FD491F901E654FE4FC491CC23A1F062
:1006900081110E94CF02EC2FF0E0EE0FFF1FE05619
:1006A000FE4FA591B491EC91ED2381E090E009F427
:1006B00080E0DF91CF91089580E090E0FACF1F9322
:1006C000CF93DF93282F30E0F901EA5BFD4F84914F
:1006D000F901E050FE4FD491F901E654FE4FC49168
:1006E000CC23A9F0162F81110E94CF02EC2FF0E04D
:1006F000EE0FFF1FEA57FE4FA591B4918FB7F89404
:10070000EC91111108C0D095DE23DC938FBFDF91EF
:10071000CF911F910895DE2BF8CFCF93DF93909167
:10072000A309992309F44BC0C82F0E947A01D0E095
:10073000FE01E456F64F878390878091A2098F3F90
:1007400019F061E00E945F038091A0099091A109D6
:10075000AE014E5F5F4FDC01ED91FC910280F381B1
:10076000E02D63EA79E019958091A0099091A109A3
:10077000DC01ED91FC910680F781E02D19958091C7
:10078000A2098F3F19F060E00E945F038091A009E9
:100790009091A109DC01ED91FC910084F185E02D9F
:1007A0001995892B61F08091A0099091A109DC0134
:1007B000ED91FC910284F385E02D1995E7CFDF914F
:1007C000CF910895ECE9F9E0908590689087818752
:1007D00083E00C948D03CF93DF9390E0FC01E05015
:1007E000FE4F249186549E4FFC0184918823C9F0CA
:1007F00090E0880F991FFC01E459FE4FA591B49138
:10080000FC01EA57FE4FC591D49161110DC09FB70D
:10081000F8948C91209582238C93888128232883B7
:100820009FBFDF91CF910895623051F49FB7F89444
:100830003C91822F809583238C93E8812E2BEFCFE0
:100840008FB7F894EC912E2B2C938FBFEACF3FB744
:10085000F8948091510690915206A0915306B09160
:10086000540626B5A89B05C02F3F19F00196A11D7F
:10087000B11D3FBFBA2FA92F982F8827BC01CD01EA
:10088000620F711D811D911D42E0660F771F881F49
:10089000991F4A95D1F708958F929F92AF92BF9278
:1008A000CF92DF92EF92FF924B015C010E942704EE
:1008B0006B017C010E9427046C197D098E099F0938
:1008C000683E734081059105A8F321E0821A9108E2
:1008D000A108B10888EEC80E83E0D81EE11CF11C07
:1008E00081149104A104B10429F7FF90EF90DF90E7
:1008F000CF90BF90AF909F908F9008952FB7F894AE
:1009000060914D0670914E0680914F069091500671
:100910002FBF08950F931F93CF93DF93EC0189812D
:1009200084FD16C087FD14C08A810E943603398178
:1009300033FB222720F935FB332730F9232731E019
:10094000892B09F030E02327888120FB80F98883F8
:10095000888180FF96C082FD94C081FD74C0826052
:1009600088830E947E046D877E878F87988B88811D
:1009700080FD1BC082FF45C08B7F888383FD03C041
:100980008B858F5F8B878881877F806488830E94B7
:100990007E046D877E878F87988B89818E7F898380
:1009A00081FF03C08D7F84608983888182FF29C095
:1009B00080FF27C00E947E040D851E852F85388903
:1009C000AB01BC01401B510B620B730B8D819E81EF
:1009D000B0E0A0E0481759076A077B0790F08881CC
:1009E00083FD0FC01B861C86886080628883898196
:1009F00081608D7F89830E947E046D877E878F87CB
:100A0000988B0E947E040D851E852F853889AB0149
:100A1000BC01401B510B620B730B8F819885B0E0BA
:100A2000A0E0481759076A077B0740F08B858823A9
:100A300029F08C871B86888180618883DF91CF9124
:100A40001F910F9108950E947E040D851E852F85AC
:100A50003889AB01BC01401B510B620B730B8B81BE
:100A60009C81B0E0A0E0481759076A077B0708F4AB
:100A70007ECF888184608068888389818260898351
:100A800076CF88818D7F888372CFCF93DF93EC01FF
:100A9000898186FF03C0CE010E948A04988194FB5D
:100AA000882780F994FF02C09F7E9883DF91CF91C1
:100AB0000895CF93DF93EC01898186FF03C0CE01B7
:100AC0000E948A04988194FB882780F994FF05C0CE
:100AD0002C85233029F49F7E9883DF91CF91089550
:100AE00080E0FBCFCF93DF93EC01898186FF03C0C9
:100AF000CE010E948A04988194FB882780F994FF94
:100B000005C02C85223029F49F7E9883DF91CF91F8
:100B1000089580E0FBCFCF93DF93EC01898186FFBE
:100B200003C0CE010E948A04988194FB882780F933
:100B300094FF05C02C85213029F49F7E9883DF9196
:100B4000CF91089580E0FBCFCF93DF93EC018981B3
:100B500086FF03C0CE010E948A04988195FB8827F6
:100B600080F995FF02C09F7D9883DF91CF91089512
:100B7000CF93DF93EC01898186FF03C0CE010E94F1
:100B80008A04988197FB882780F9882311F09F7742
:100B90009883DF91CF910895809104028823B1F06A
:100BA000609101028CE00E945F036091020288E183
:100BB0000E945F0381E08093A906809101028093E7
:100BC00090068091020280939C06089561E08CE07B
:100BD0000E945F0361E088E10E945F031092A90612
:100BE00081E080939006EFCF0F931F938091720660
:100BF0008230C1F0863059F1813089F40E947E0440
:100C0000609348067093490680934A0690934B067A
:100C100060E087E00E945F0382E0809372061F918C
:100C20000F9108950E947E04009148061091490694
:100C300020914A0630914B06601B710B820B930B7F
:100C4000613C77428940910550F386E0E6CF60E948
:100C500071E080E090E00E944C0461E087E00E9437
:100C60005F0310928B0610927206D9CF80910A0210
:100C7000882369F081E08093A806609107028AE0EA
:100C80000E945F03609108028BE00C945F03109256
:100C9000A80661E08AE00E945F0361E0F5CF8091E1
:100CA00010028823B9F081E08093A70660910D02BD
:100CB00085E00E945F0360910D0284E00E945F0363
:100CC00060910E0286E20E945F0360910E0283E053
:100CD0000C945F031092A70661E085E00E945F0319
:100CE00061E084E00E945F0361E086E20E945F03AE
:100CF00061E0EDCF80911602882369F081E0809356
:100D00009306609113028BE10E945F0360911402CD
:100D10008CE10C945F031092930661E08BE10E94DA
:100D20005F0361E0F5CF80912202882369F081E0C2
:100D3000809395066091250285E30E945F03609190
:100D4000260284E30C945F031092950661E085E32C
:100D50000E945F0361E0F5CF80912802882369F04B
:100D600081E08093A606609125028DE20E945F03D8
:100D7000609126028EE20C945F031092A60661E059
:100D80008DE20E945F0361E0F5CF0F931F93809186
:100D90006B068230C1F0863059F1813089F40E94AF
:100DA0007E046093440670934506809346069093B4
:100DB000470660E086E00E945F0382E080936B0656
:100DC0001F910F9108950E947E0400914406109196
:100DD00045062091460630914706601B710B820B39
:100DE000930B613C77428940910550F386E0E6CF52
:100DF00064E170E080E090E00E944C0461E086E0F5
:100E00000E945F0310928A0610926B06D9CF8091E0
:100E10002E02882369F081E08093A50660912B0261
:100E20008BE20E945F0360912C028CE20C945F03C2
:100E30001092A50661E08BE20E945F0361E0F5CFAE
:100E400080913402882341F081E080939206609182
:100E500031028AE10C945F031092920661E0F9CFAF
:100E600080913A02882369F081E08093A406609122
:100E7000370287E20E945F03609138028AE20C9495
:100E80005F031092A40661E087E20E945F0361E0C5
:100E9000F5CF80914002882369F081E08093A3061A
:100EA00060913D0289E20E945F0360913E0288E208
:100EB0000C945F031092A30661E089E20E945F0335
:100EC00061E0F5CFCF93DF93EC010E947E04798738
:100ED000688781E08F83DF91CF9108950F931F93EF
:100EE000CF93DF93EC010E947E04088119812A814F
:100EF0003B81601B710B820B930B0C811D812E813A
:100F00003F81601771078207930760F00E947E049B
:100F1000688379838A839B8381E0DF91CF911F91DE
:100F20000F91089580E0F9CFFC0101900020E9F7CE
:100F30003197AF01481B590BBC018AEB96E00C942A
:100F400095018F929F92AF92BF920F931F93CF9371
:100F5000DF93CDB7DEB7A1970FB6F894DEBF0FBE13
:100F6000CDBF19A2423008F44AE08E010F5D1F4F39
:100F7000842E912CB12CA12CA50194010E94F81B68
:100F8000E62FB901CA01EA30F4F4E05DD801EE932E
:100F90008D01232B242B252B79F790E080E01097EF
:100FA00019F0CD010E949407A1960FB6F894DEBF08
:100FB0000FBECDBFDF91CF911F910F91BF90AF902A
:100FC0009F908F900895E95CE1CF0C949407CF93A4
:100FD000DF930E949407EC0185E592E00E9494075C
:100FE0008C0F9D1FDF91CF910895CF93DF93682FD2
:100FF00070E090E080E04AE00E94A107EC0185E506
:1010000092E00E9494078C0F9D1FDF91CF9108956D
:10101000DF92EF92FF920F931F93CF93DF937C01A8
:10102000D0E0C0E0D70112968D919C911397C8171C
:10103000D907B0F4ED91FC911197EC0FFD1FD08012
:1010400014960D911C910C0F1D1FC8010E94E21BEC
:10105000D81621F06D2DC8010E94EA1B2196E2CF1F
:10106000DF91CF911F910F91FF90EF90DF90089546
:101070001F93CF93DF93FC011781111106C010E07D
:10108000812FDF91CF911F910895EC010E947E0482
:1010900028853985621B730B8A859B8568177907BC
:1010A00070F38E81882319F0CE010E9408081F82F8
:1010B000E7CFEF92FF920F931F93CF93DF93EC0153
:1010C0009B012F5F3F4F3D832C838A819B81280F9B
:1010D000391F2130304158F5F42E8B0181E08E8389
:1010E000CB010E94E21BF81216C010E000E08A81DA
:1010F0009B810817190718F5E880F980E00EF11EAA
:101100008C819D81800F911F0E94E21BF7018083DB
:101110000F5F1F4FECCF6F2DC8010E94EA1B8E811D
:10112000882319F0CE010E94080881E001C082E006
:10113000DF91CF911F910F91FF90EF90089580E084
:10114000F7CF1F920F920FB60F9211240BB60F928A
:101150002F933F934F935F936F937F938F939F93BF
:10116000AF93BF93EF93FF938FEF98E00E9413022A
:10117000FF91EF91BF91AF919F918F917F916F916F
:101180005F914F913F912F910F900BBE0F900FBE2B
:101190000F901F9018951F920F920FB60F92112467
:1011A0000BB60F922F938F939F93EF93FF93E09142
:1011B0000F09F09110098081E0911509F09116094D
:1011C00082FD1DC09081809118098F5F8F732091DF
:1011D0001909821741F0E0911809F0E0E150F74F4A
:1011E000958F80931809FF91EF919F918F912F9187
:1011F0000F900BBE0F900FBE0F901F90189580811F
:10120000F2CF1F920F920FB60F9211240BB60F92CE
:101210002F933F934F935F936F937F938F939F93FE
:10122000AF93BF93EF93FF938AEB96E00E94130274
:10123000FF91EF91BF91AF919F918F917F916F91AE
:101240005F914F913F912F910F900BBE0F900FBE6A
:101250000F901F9018951F920F920FB60F921124A6
:101260000BB60F922F938F939F93EF93FF93E09181
:10127000CA06F091CB068081E091D006F091D106AC
:1012800082FD1DC090818091D3068F5F8F73209166
:10129000D406821741F0E091D306F0E0E654F94F0E
:1012A000958F8093D306FF91EF919F918F912F910E
:1012B0000F900BBE0F900FBE0F901F90189580815E
:1012C000F2CF1F920F920FB60F9211242F933F93DC
:1012D0008F939F93AF93BF9380914D0690914E064D
:1012E000A0914F06B091500630914C0623E0230F99
:1012F0002D3758F50196A11DB11D20934C06809302
:101300004D0690934E06A0934F06B09350068091E1
:10131000510690915206A0915306B0915406019641
:10132000A11DB11D8093510690935206A0935306C0
:10133000B0935406BF91AF919F918F913F912F91A0
:101340000F900FBE0F901F90189526E8230F02965E
:10135000A11DB11DD2CF1F920F920FB60F92112473
:101360000BB60F922F933F938F939F93AF93BF939F
:10137000CF93DF93EF93FF93E0915706F0915806D8
:10138000309749F0A685B7859585868D81FF14C075
:101390008C918923A1F4FF91EF91DF91CF91BF91BF
:1013A000AF919F918F913F912F910F900BBE0F9016
:1013B0000FBE0F901F9018958C91892361F7A38918
:1013C000B4899C918589809589238C938689978996
:1013D0000197F1F7208D318DC685D78588E0D90139
:1013E0001197F1F798818150D1F78091560690E0DE
:1013F00001968F73992720915506281779F09091BF
:10140000560680935606828D938D0197F1F7A38936
:10141000B4898C919589892B8C93BDCF868D816001
:10142000868FF1CFCF93DF93EC01862F2CE330E052
:101430003C832B8324EF31E03E832D832CE231E08B
:1014400038872F8320E931E03A8729871B861C865D
:101450001D861E861F86188A6A839981977C9F7BCA
:10146000998397FD03C062E00E94EB0389818F7727
:101470008983DF91CF9108950F931F93CF93DF93CB
:10148000EFEFF8E01382128248EE53E060E070E084
:10149000448355836683778387E492E091838083D6
:1014A0002DEC30E0358724872CEC30E03787268719
:1014B00028EC30E0318B208B29EC30E0338B228B11
:1014C0002AEC30E0358B248B2EEC30E0378B268BEA
:1014D000118E128E138E148EAAEBB6E013961C9208
:1014E0001E92129714964D935D936D937C9317976C
:1014F00011969C938E9385EC90E01D969C938E9311
:101500001C9784EC90E01F969C938E931E9780EC22
:1015100090E051969C938E93509781EC90E0539677
:101520009C938E93529782EC90E055969C938E9369
:10153000549786EC90E057969C938E9356975996C5
:101540001C9259975A961C925A975B961C925B97DD
:101550005C961C92ACE9B9E01092AC0A1092AB0A0E
:101560001092AE0A1092AD0A1092B00A1092AF0A11
:101570001092B20A1092B10A1196FC93EE93139650
:101580001C921E9212971596FC93EE93149710924C
:10159000A40A1092A30A1092A60A1092A50A109209
:1015A000A80A1092A70A1092AA0A1092A90A89E121
:1015B00016968C93C8EDD8E08DE0888319821A8244
:1015C0001B821C821D821E821F82188619861A8623
:1015D0001B861C861F86188A198A1A8A1B8A1C8AEF
:1015E0001D8A1E8A1F8A188E198E1A8E1B8E1C8EBB
:1015F0001D8E1E8E1F8E18A219A21AA21BA21CA23B
:101600001DA21EA261E00E94EB0388EB9BE0A0E01C
:10161000B0E08B8B9C8BAD8BBE8B0E947E0469836C
:101620007A838B839C838CE291E0A0E0B0E08D8391
:101630009E83AF83B88788EC90E0A0E0B0E0898714
:101640009A87AB87BC8783E08D870E947E040B89D5
:101650001C892D893E89601B710B820B930B6F8750
:10166000788B898B9A8B66E387EC98E00E94120A4C
:101670006BE386EB98E00E94120A6CE385EA98E03F
:101680000E94120A6DE384E998E00E94120A65E460
:1016900083E898E00E94120A60E482E798E00E94E2
:1016A000120A63E481E698E00E94120A62E480E58F
:1016B00098E00E94120A61E48FE398E00E94120A07
:1016C00064E48EE298E00E94120A68E38DE198E0FB
:1016D0000E94120A61E28CE098E00E94120A64E221
:1016E0008BEF97E00E94120AEFEEF7E01682178266
:1016F000118610868DE392E09183808326E030E0AE
:101700003383228388E893E193878287E3EEF7E0CF
:10171000168217821186108647E352E05183408378
:101720003383228393878287E7EDF7E0168217825F
:101730001186108641E352E0518340833383228334
:1017400093878287EBECF7E016821782118610866A
:101750004BE252E051834083338322839387828715
:10176000EFEBF7E0168217821186108645E252E011
:10177000518340833383228393878287E3EBF7E0AF
:1017800016821782118610864FE152E05183408302
:101790003383228393878287E7EAF7E016821782F2
:1017A0001186108649E152E05183408333832283BE
:1017B00093878287EBE9F7E01682178211861086FD
:1017C00043E152E0518340833383228393878287AE
:1017D000EFE8F7E016821782118610864DE052E09E
:1017E000518340833383228393878287E3E8F7E042
:1017F000168217821186108647E052E0518340839B
:101800003383228393878287E7E7F7E01682178284
:101810001186108641E052E0518340833383228356
:1018200093878287EFE6F7E010821182128213829B
:1018300084E690E0A0E0B0E084839583A683B7833C
:10184000E7E6F7E0108211821282138240EE53E93C
:1018500064E070E04483558366837783EFE5F7E0C7
:10186000108211821282138284839583A683B783A8
:10187000E7E5F7E010821182128213828483958358
:10188000A683B783DF91CF911F910F91089578942C
:1018900084B5826084BD84B5816084BD85B5826075
:1018A00085BD85B5816085BD80916E008160809326
:1018B0006E0010928100809181008260809381008F
:1018C000809181008160809381008091800081609F
:1018D000809380008091B10084608093B1008091FA
:1018E000B00081608093B00080919100826080930D
:1018F000910080919100816080939100809190008F
:101900008160809390008091A10082608093A1000B
:101910008091A10081608093A1008091A0008160EE
:101920008093A000809121018260809321018091A9
:101930002101816080932101809120018160809349
:10194000200180917A00846080937A0080917A00EF
:10195000826080937A0080917A00816080937A001F
:1019600080917A00806880937A001092C100E091A3
:10197000CA06F091CB06D2E0D083E091C606F09182
:10198000C7061082E091C806F091C90680E1808305
:101990001092D206E091CE06F091CF06C6E0C08349
:1019A000E091CC06F091CD06808180618083E0914A
:1019B000CC06F091CD06808188608083E091CC06D2
:1019C000F091CD06808180688083E091CC06F09113
:1019D000CD0680818F7D808384E690E0A0E0B0E03A
:1019E0008093BE069093BF06A093C006B093C10635
:1019F00081E792E00E94E70781E696E09093A60ACD
:101A00008093A50A82E090E09093AE0A8093AD0A9D
:101A10002DE536E03093A80A2093A70A9093B00AE8
:101A20008093AF0A29E536E03093AA0A2093A90AE9
:101A30009093B20A8093B10A84E896E09093A40A46
:101A40008093A30A86E390E09093AC0A8093AB0A5C
:101A50008AE08093B30AE0919C09F0919D09309748
:101A600009F40FC38CE29AE0A0E0B0E08093B40ADE
:101A70009093B50AA093B60AB093B70A8FE492E1A7
:101A8000A0E0B0E08093B80A9093B90AA093BA0A94
:101A9000B093BB0AA089B189DC93A485B5851C925B
:101AA000A685B7858FEC8C93108EA489B589CC93CD
:101AB000A289B3898C9180618C93A289B3898C911E
:101AC00088608C93A289B3898C9180688C930288FA
:101AD000F389E02D80818F7D80838091A2098F3FE3
:101AE00041F061E00E94EB0360E08091A2090E9456
:101AF0005F030E9427046B017C018091A0099091F3
:101B0000A109DC01ED91FC910084F185E02D19958E
:101B1000892B79F00E9427046B017C018091A00938
:101B20009091A109DC01ED91FC910284F385E02DF7
:101B300019950E9427046C197D098E099F0900914F
:101B4000B80A1091B90A2091BA0A3091BB0A6017FD
:101B500071078207930788F2C2E061E08C2F0E9430
:101B6000EB0361E08C2F0E945F03CF5FC631A9F7C2
:101B7000C6E1D0E0C931D10541F061E08C2F0E946F
:101B8000EB0361E08C2F0E945F032196C032D105E8
:101B900089F7C6E261E08C2F0E94EB0361E08C2F95
:101BA0000E945F03CF5FC633A9F7D0E262E08D2FBA
:101BB0000E94EB03DF5FD632C9F762E08C2F0E94F0
:101BC000EB03CF5FC634C9F784E190E09093CB0874
:101BD0008093CA089093BA088093B9089093A90893
:101BE0008093A8089093980880939708909387080B
:101BF0008093860890937608809375089093650883
:101C000080936408909354088093530890934308FA
:101C10008093420890933208809331089093210872
:101C2000809320089093100880930F089093FF07EB
:101C30008093FE0742E660E170E08FEE97E00E943D
:101C400059086091F3077091F4078091F107909122
:101C5000F207680F791F41E683EE97E00E9459086A
:101C60006091E7077091E8078091E5079091E6079A
:101C7000680F791F41E68BEC97E00E94590860914C
:101C8000CF077091D0078091CD079091CE07680F54
:101C9000791F41E68FEB97E00E9459086091C307D6
:101CA0007091C4078091C1079091C207680F791F96
:101CB00041E683EB97E00E9459086091B707709165
:101CC000B8078091B5079091B607680F791F41E674
:101CD00087EA97E00E9459086091AB077091AC07C2
:101CE0008091A9079091AA07680F791F41E68BE9B7
:101CF00097E00E94590860919F077091A00780911A
:101D00009D0790919E07680F791F42E68FE897E044
:101D10000E945908609193077091940780919107F0
:101D200090919207680F791F41E683E897E00E943F
:101D30005908609187077091880780918507909175
:101D40008607680F791F41E687E797E00E945908E8
:101D500060917B0770917C078091790790917A0759
:101D6000680F791F41E687ED97E00E9459080E94AD
:101D7000490764E670E080E090E00E944C040E9415
:101D8000300764E670E080E090E00E944C040E941E
:101D9000200764E670E080E090E00E944C040E941E
:101DA000070764E670E080E090E00E944C040E9427
:101DB000200764E670E080E090E00E944C040E94FE
:101DC000930664E670E080E090E00E944C040E947C
:101DD000AC0664E670E080E090E00E944C040E9453
:101DE0007A0664E670E080E090E00E944C040E9475
:101DF0004F0664E670E080E090E00E944C040E9490
:101E0000360664E670E080E090E00E944C040E9498
:101E1000CC05C1E0C12CD12C7601C39414E0D7E0ED
:101E200005E00E947E04409067065090680660902E
:101E3000690670906A069B01AC01241935094609B0
:101E4000570929013A010E947E0460936706709346
:101E500068068093690690936A063BE04316510436
:101E60006104710430F18091630690916406A09141
:101E70006506B0916606481659066A067B06C9F0E3
:101E80004092630650926406609265067092660600
:101E900088E592E00E94E5074AE0C301B2010E9492
:101EA000A10785E592E00E94940780E792E00E94F6
:101EB000E50788EB9BE0A0E0B0E08093EB0890930F
:101EC000EC08A093ED08B093EE080E947E046093A6
:101ED000D9087093DA088093DB089093DC08F0E26D
:101EE0006F2EF3E07F2E812C912C6092DD08709292
:101EF000DE088092DF089092E0081092E1081092CC
:101F0000E2081092E3081092E408C093E5080E94EA
:101F10007E044090EB085090EC086090ED087090C3
:101F2000EE0864197509860997096093E7087093AC
:101F3000E8088093E9089093EA088091A0099091BD
:101F4000A109DC01ED91FC910084F185E02D19954A
:101F5000892B09F4CDC1412C512C3201B12CA12C7B
:101F60008091A0099091A109DC01ED91FC91008480
:101F7000F185E02D1995892BB1F00E9427042B01E2
:101F80003C018091A0099091A109DC01ED91FC91A7
:101F90000284F385E02D1995F501E456F64F878309
:101FA000BFEFAB1ABB0A0E942704641975098609A2
:101FB00097092091B40A3091B50A4091B60A509120
:101FC000B70A261737074807590728F0EFEFAE166C
:101FD000B10431F228F20E942704641975098609B8
:101FE00097092091B80A3091B90A4091BA0A5091E4
:101FF000BB0A621773078407950768F38091A009ED
:102000009091A109DC01ED91FC910084F185E02D16
:102010001995892B09F06CC18091A3099091B30A9D
:10202000891711F0811164C18EEF8A0D0E947A0127
:10203000F501E456F64F26813581232732272327E1
:102040008217930709F054C1E091A409E150E031EF
:1020500008F005C1F0E08827EF5CFF4E8F4F0C942D
:102060001A1C141126178617D8172A185D182F1155
:102070002F112F112F112F112F112F112F11871801
:10208000E818E0919E09F0919F09309709F425CD59
:102090008CE29AE0A0E0B0E08093B40A9093B50A95
:1020A000A093B60AB093B70A8FE492E1A0E0B0E043
:1020B0008093B80A9093B90AA093BA0AB093BB0A66
:1020C000138E128E118E108E178A168A8DE991E06A
:1020D000958F848F848596EF980F943048F02EEC7E
:1020E000280F243028F022EC280F283008F055C0A3
:1020F0002DEB30E0378B268B2BE931E0318F208FB1
:102100002CE231E0338F228F943050F02EEC280FE8
:10211000243030F022EC280FB0E0A0E0283010F49A
:10212000A8E6B0E02C91943028F032EC380F38302B
:1021300008F45EC031E0232B943048F09EEC980FF9
:10214000943028F08E53B0E0A0E0883010F4A8E678
:10215000B0E02C93248536EF320F343008F44AC0B7
:102160008EEC820F843008F445C082EC820F8830F8
:1021700008F043C08DE690E0948B838B343008F0F8
:102180003FC02650330B81E001C0880F2A95EAF743
:10219000858B848D958D0197F1F7828D938D892B99
:1021A00009F49BCCA0915706B0915806EA17FB079B
:1021B00009F493CC109751F05396CD91DC9154973C
:1021C000988155968C91809589238883868D8E7F02
:1021D000868F1092560610925506F0935806E0939B
:1021E0005706A389B4898C919589892B8C9375CCDA
:1021F00034E0A1CF8BE690E0BFCF90E080E0BCCF91
:1022000088E0223329F284E0233309F4C1CF82E04D
:10221000243309F4BDCF82EC820F883018F42E539A
:10222000330BB1CF81E0B4CF6091A5097091A609BD
:102230007627672776278091A7099091A809982784
:1022400089279827A091A30AB091A40A109739F082
:102250004091AB0A5091AC0A4115510511F481E04F
:1022600006C0FC013197E03DF74020F083E00E947A
:10227000E2033EC04817590728F0481B590B461780
:10228000570710F482E0F3CFAC01495F5F4FE3E002
:1022900056954795EA95E1F74093A509A60FB71F14
:1022A00030E020E0BD90A901477055273601470175
:1022B00004C0660C771C881C991C4A95D2F7A301B0
:1022C000F90153E0F695E7955A95E1F7E156F64F97
:1022D000A780BB2009F4B6C54A2947832F5F3F4F2B
:1022E00082179307F9F68091A5098D5F0E948D03EF
:1022F00087EC98E00E948A048FEE97E00E943808ED
:1023000087EC98E00E94B805882371F08091400224
:1023100081110AC0C0934002C09341020E94490744
:1023200084E792E00E94E70787EC98E00E948B0523
:10233000882339F080914102882309F49BC71092C9
:10234000410287EC98E00E945905882391F0109291
:10235000410280914202813009F49CC708F493C77E
:10236000823009F49DC70E94490789E992E00E94E2
:10237000E70787EC98E00E94A405882351F01092AB
:102380004102109240028DEA92E00E94E5070E940D
:10239000490787EC98E00E944505882351F0109288
:1023A00041028CEC92E00E94E5078091D3080E94E4
:1023B000F5078091A30690914002911178C7882378
:1023C00021F0C09340020E94490785EA98E00E94EC
:1023D0008A0483EE97E00E94380885EA98E00E941C
:1023E000B805882371F080913A0281110AC0C09328
:1023F0003A02C0933B020E94300785EE92E00E94B1
:10240000E70785EA98E00E948B05882339F08091E0
:102410003B02882309F450C710923B0285EA98E0FA
:102420000E947205811110923B0285EA98E00E9499
:1024300059058823B1F010923B0280913C02813013
:1024400009F44AC708F441C7823009F44BC70E9417
:1024500030078AE093E00E94E70783EE97E00E944E
:10246000620785EA98E00E94A405882379F08091AC
:102470003B02882309F43DC710923B02C09334020B
:10248000C0933A020E9430070E94200785EA98E034
:102490000E944505882351F010923B028CE393E0A3
:1024A0000E94E5078091B1080E94F5078091A4067B
:1024B00090913A0291112AC7882321F0C0933A02E1
:1024C0000E94300786EB98E00E948A0487ED97E02F
:1024D0000E94380886EB98E00E94B805882371F0C6
:1024E0008091340281110AC0C0933402C093350236
:1024F0000E94200785E593E00E94E70786EB98E0BD
:102500000E948B05882339F080913502882309F4D5
:1025100002C71092350286EB98E00E945905882385
:10252000B1F01092350280913C02813009F403C76A
:1025300008F4FAC6823009F404C70E9430078AE022
:1025400093E00E94E70783EE97E00E94620786EB24
:1025500098E00E94A4058823A9F080913502882381
:1025600009F4F6C610923502C0933402C0933A02C1
:102570000E94300762E370E080E090E00E944C042B
:102580000E94200786EB98E00E944505882351F0C1
:102590001092350282EA93E00E94E5078091C2081A
:1025A0000E94F50780919206909134029111E3C642
:1025B000882321F0C09334020E94200784E998E028
:1025C0000E948A048BEC97E00E94380884E998E026
:1025D0000E94B805882371F080912E0281110AC0F3
:1025E000C0932E02C0932F020E9407078EEB93E048
:1025F0000E94E70784E998E00E948B05882339F060
:1026000080912F02882309F4BBC610922F0284E91F
:1026100098E00E947205882369F010922F02809141
:102620006C06882309F4B5C610926C0661E086E05A
:102630000E945F0384E998E00E9459058823B1F065
:1026400010922F0280913002813009F4ADC608F457
:10265000A4C6823009F4AEC60E94070783EE93E059
:102660000E94E7078BEC97E00E94620784E998E0FC
:102670000E94A405882369F080912F028111109295
:102680002F0280916B0681119CC6C0936B06C0938C
:102690008A0684E998E00E944505882351F010924B
:1026A0002F0286EF93E00E94E5078091A0080E9428
:1026B000F5078091A50690912E02911188C6882376
:1026C00021F0C0932E020E94070780916B06909123
:1026D0008A06992309F480C6811104C0C0936B0651
:1026E0000E94C50682E798E00E948A048FEB97E07B
:1026F0000E94380882E798E00E94B805882371F0AC
:102700008091280281110AC0C0932802C093290237
:102710000E94AC068FE094E00E94E70782E798E011
:102720000E948B05882339F080912902882309F4BF
:102730005AC61092290282E798E00E947205882307
:1027400079F01092290280912202882309F454C65C
:102750001092220210921F02109220020E949306F1
:1027600082E798E00E9459058823D1F0109229024F
:1027700080912A02813009F44DC608F444C68230A3
:1027800009F44EC60E94AC0684E394E00E94E70779
:102790008FEB97E00E94620783EB97E00E9462074D
:1027A00082E798E00E94A405882309F1809129021C
:1027B000882309F43CC610922902C0932802C093D2
:1027C0002202C0931C02C09316020E94AC0662E370
:1027D00070E080E090E00E944C040E94930662E367
:1027E00070E080E090E00E944C040E947A0682E74C
:1027F00098E00E944505882351F01092290286E650
:1028000094E00E94E50780917E080E94F507809180
:10281000A60690912802911129C6882321F0C09321
:1028200028020E94AC068091950690912202911197
:1028300022C6882321F0C09322020E9493068EE3D1
:102840000E943603B82E8093780687E597E00E94B1
:102850006E07882311F1BB2031F080912E02811187
:1028600002C0C093710680917106843009F408C6D5
:10287000863009F421C6813081F40E947E04609381
:102880006D0670936E0680936F069093700660E0FD
:102890008CE20E945F03109371060E94C50683E8D4
:1028A00098E00E948A048BE997E00E94380883E848
:1028B00098E00E94B805882371F08091160281117A
:1028C0000AC0C0931602C09317020E947A068FE7CF
:1028D00094E00E94E70783E898E00E948B05882334
:1028E00039F080911702882309F4F3C5109217027A
:1028F00083E898E00E9459058823B1F010921702EE
:1029000080911802813009F4F4C508F4EBC58230D7
:1029100009F4F5C50E947A0689E994E00E94E70768
:102920008BE997E00E94620783E898E00E94A40583
:102930008823F9F080911702882309F4E7C51092E3
:102940001702C0931602C0932802C09322020E946D
:102950007A0662E370E080E090E00E944C040E94FE
:10296000AC0662E370E080E090E00E944C040E94BC
:10297000930683E898E00E944505882351F0109261
:10298000170288EC94E00E94E50780918F080E946E
:10299000F50780919306909116029111D8C588236E
:1029A00021F0C09316020E947A068DE198E00E9401
:1029B0008A048FE897E00E9438088DE198E00E9431
:1029C000B805882371F08091100281110AC0C0936C
:1029D0001002C09311020E944F0680EE94E00E9404
:1029E000E7078DE198E00E948B05882339F08091FC
:1029F0001102882309F4B0C5109211028DE198E00C
:102A00000E9472058111109211028DE198E00E94DE
:102A10005905882391F110921102809112028130A0
:102A200009F4AAC508F4A1C5823009F4ABC50E9417
:102A30004F0685E095E00E94E70788E195E00E9457
:102A4000E5076091120270E090E080E04AE00E94A9
:102A5000A10789E295E00E94E50760910E0270E00F
:102A600090E080E04AE00E94A10785E592E00E94A4
:102A700094078FE897E00E9462078DE198E00E943A
:102A8000A405882369F080911102882309F481C587
:102A900010921102C093100210920F020E944F0672
:102AA0008DE198E00E944505882351F010921102B3
:102AB00088E495E00E94E507809129080E94F507C7
:102AC0008091A7069091100291116EC5882321F084
:102AD000C09310020E944F068CE098E00E948A0486
:102AE00083E897E00E9438088CE098E00E94B805DF
:102AF000882381F01092780680910A0281110AC021
:102B0000C0930A02C0930B020E94360681E695E04C
:102B10000E94E7078CE098E00E948B05882339F03B
:102B200080910B02882309F444C510920B028CE0BB
:102B300098E00E947205811110920B028CE098E0DF
:102B40000E9459058823B1F010920B0280910C026B
:102B5000813009F43EC508F435C5823009F43FC51B
:102B60000E9436068BE795E00E94E70783E897E02E
:102B70000E9462078CE098E00E94A405882369F017
:102B800080910B02811110920B02809172068111CB
:102B90002DC5C0937206C0938B068CE098E00E940E
:102BA0004505882351F010920B0289E895E00E94B8
:102BB000E507809118080E94F5078091A80690917A
:102BC0000A02911119C5882321F0C0930A020E94BC
:102BD00036068091720690918B06992309F411C5EF
:102BE000811104C0C09372060E94F40582E20E9423
:102BF0003603B82E809378068FE597E00E946E0723
:102C0000882311F1BB2031F080910A02811102C0AA
:102C1000C093770680917706843009F4F9C4863032
:102C200009F412C5813081F40E947E04609373061A
:102C300070937406809375069093760660E08BE03F
:102C40000E945F03109377060E94F4058BEF97E0D4
:102C50000E948A0487E797E00E9438088BEF97E08C
:102C60000E94B805882371F08091040281110AC086
:102C7000C0930402C09305020E94CC058EE995E042
:102C80000E94E7078BEF97E00E948B05882339F0BD
:102C900080910502882309F4E4C4109205028BEFA9
:102CA00097E00E9459058823B1F0109205028091A7
:102CB0000602813009F4E5C408F4DCC4823009F46A
:102CC000E6C40E94CC058BEC95E00E94E70787E7FD
:102CD00097E00E9462078BEF97E00E94A40588238B
:102CE00071F110920502809100028111D7C4C09346
:102CF0000002C0931602C0932802C0932202C09320
:102D000004020E94930662E370E080E090E00E947B
:102D10004C040E94AC0662E370E080E090E00E9408
:102D20004C040E947A0662E370E080E090E00E942A
:102D30004C040E94CC0582EE95E00E94E5078BEFE3
:102D400097E00E944505882341F087E296E00E94C3
:102D5000E507809107080E94F5078091A9069091E8
:102D600004029111FEC4882321F0C09304020E9442
:102D7000CC0585E20E943603B82E80937A068FE652
:102D800097E00E946E07882341F1BB2081F080917B
:102D9000040281110CC060E08CE00E945F0310927D
:102DA0009C0680917906811102C0C093790687E65E
:102DB00097E00E946E07882381F0809104028111C0
:102DC0000AC080917906882331F061E08CE00E948E
:102DD0005F03C0939C0610927906809183069091C0
:102DE0009206992309F4C2C4811102C0C0938306DC
:102DF00080918306853009F4BFC4873009F4DBC4B1
:102E00008130E1F40E947E0460937F067093800617
:102E1000809381069093820660E08EE00E945F03BB
:102E20000093830680E497E7ABE1B0E080937B06F4
:102E300090937C06A0937D06B0937E060E94A2022A
:102E40000C94110F4095A422A78248CA6091A5094D
:102E50007091A6097627672776278091A709909118
:102E6000A809982789279827A091A50AB091A60AB2
:102E7000109709F4F4C94091AD0A5091AE0A41157A
:102E8000510509F4ECC9FC013197E03DF74008F029
:102E9000EDC94817590708F4F5C9481B590B4617DF
:102EA000570708F4EFC9AC01495F5F4FE3E056955F
:102EB0004795EA95E1F74093A509A60FB71F30E0C3
:102EC00020E0BD90A901477055273601470104C095
:102ED000660C771C881C991C4A95D2F7A301F9014E
:102EE00053E0F695E7955A95E1F7E156F64FA7803E
:102EF000BB2041F04A2947832F5F3F4F821793073A
:102F000001F7F1C94095A422A782F6CFE091A50967
:102F1000F091A609FE27EF27FE274091A70A5091BE
:102F2000A80A4115510509F49AC92091AF0A3091B8
:102F3000B00A2115310509F492C98091A709909131
:102F4000A809982789279827BC01615071096D3716
:102F5000710508F08BC92817390708F493C9281B95
:102F6000390B2E173F0708F48DC9282F220F209305
:102F7000A509EE0FFF1FBF01640F751FACE9B9E093
:102F800030E020E0FB0141816E5F7F4F1A964C9349
:102F90001A97AB0142505109FA0140811B964C939C
:102FA0001B972F5F3F4F12962817390759F79BC978
:102FB000E091A509F091A609FE27EF27FE27409191
:102FC000A90A5091AA0A4115510509F448C920914E
:102FD000B10A3091B20A2115310509F440C9809136
:102FE000A7099091A809982789279827BC016150C3
:102FF00071096D37710508F039C92817390708F4C8
:1030000041C9281B390B2E173F0708F43BC9282F4D
:10301000220F2093A509EE0FFF1FBF01640F751F3C
:10302000ACE9B9E030E020E0FB0141816E5F7F4F09
:103030001A964C931A97AB0142505109FA014081FC
:103040001B964C931B972F5F3F4F129628173907FB
:1030500059F749C94091A5095091A6095427452718
:1030600054278091A7099091A80998278927982724
:103070002091A30A3091A40A2115310509F4EFC863
:103080006091AB0A7091AC0A6115710509F4E7C84B
:10309000009729F08115FFEF9F0709F0E7C8461751
:1030A000570708F0EFC8240F351F41E0892B09F4BA
:1030B00040E0D9014C9386E019C98091A50990910F
:1030C000A6099827892798274091A7095091A80910
:1030D0005427452754272091A70A3091A80A211583
:1030E000310509F4BCC86091AF0A7091B00A61154E
:1030F000710509F4B4C88617970708F0C3C8880F8C
:10310000991F280F391FF90151834083D4CF609153
:10311000A5097091A6097627672776278091A709C8
:103120009091A8099827892798272091A30A309180
:10313000A40A232B09F493C82091AB0A3091AC0A5E
:103140002115310509F48BC8AC0141505109403BB0
:10315000F7E05F0708F08AC8E091A909485F5F4F70
:10316000F3E056954795FA95E1F7E417150609F04F
:103170007DC82817390708F485C8281B390B26177E
:10318000370708F47FC850E040E0E091A30AF091CF
:10319000A40AE40FF51FE60FF71FDA0123E0B69546
:1031A000A7952A95E1F7A456B64F1E962C9130E0CC
:1031B000DA01A770BB2702C035952795AA95E2F7DB
:1031C000217020834F5F5F4F48175907F1F673CF87
:1031D0008091A5099091A609982789279827209181
:1031E000A7093091A8093227232732274091A70A3F
:1031F0005091A80A452B09F432C84091AF0A50916A
:10320000B00A4115510509F42AC8B9016150710984
:103210006B37710508F02AC8E091A909B901660F5A
:10322000771FE617170609F021C84217530708F45D
:1032300029C8421B530B4817590708F423C8880FA5
:10324000991FECE9F9E050E040E08C599940A091D9
:10325000A70AB091A80AAE0FBF1FA80FB91F7685A5
:1032600067856D937C934F5F5F4F3296421753078C
:1032700071F721CF109240020E94490786E892E040
:103280000E94E7075EC8C0934202C0933D021092BD
:103290003E0269C882E08093420210923D02F7CF5D
:1032A0001092420210923D02C0933E025CC881110E
:1032B0008CC81092400287C810923A020E943007D0
:1032C00087EF92E00E94E707A9C8C0933C02C09331
:1032D000370210923802BBC882E080933C02109201
:1032E0003702F7CF10923C0210923702C093380297
:1032F000AEC81092340210923A020E9430070E9427
:1033000020078DE193E00E94E507C0C88111DAC86B
:1033100010923A02D5C8109234020E9420078AE621
:1033200093E00E94E707F7C8C0933C02C0933702BE
:103330001092380202C982E080933C021092370258
:10334000F7CF10923C0210923702C0933802F5C8B2
:103350001092340210923A020E94300762E370E049
:1033600080E090E00E944C040E94200780E893E0F7
:103370000E94E50707C9811121C9109234021CC9B6
:1033800010922E020E94070780ED93E00E94E7074B
:103390003EC9C0936C0660E04AC9C0933002C09336
:1033A0002B0210922C0258C982E0809330021092B6
:1033B0002B02F7CF1092300210922B02C0932C02F6
:1033C0004BC986E080936B0610928A0662C9811110
:1033D0007CC910922E0277C9882309F483C986E03C
:1033E00080936B067DC9109228020E94AC0681E290
:1033F00094E00E94E7079FC9C0932202C0931F0276
:10340000C0932002ABC9C0932A02C0932502109238
:103410002602B8C982E080932A0210922502F7CFD3
:1034200010922A0210922502C0932602ABC9109274
:1034300028021092220210921C02109216020E9480
:10344000930662E370E080E090E00E944C040E94EA
:103450007A0662E370E080E090E00E944C040E94F3
:10346000AC0687E494E00E94E507C1C98111DBC97D
:1034700010922802D6C98111E2C910922202DDC938
:103480000E947E0440906D0650906E0660906F061C
:10349000709070066419750986099709613C774236
:1034A0008940910508F4F9C980912E0281110EC05E
:1034B00086E080937106F1C968E270E080E090E0F8
:1034C0000E944C0461E08CE20E945F03109271063E
:1034D000E4C9109216020E947A068BE894E00E94DA
:1034E000E70706CAC0931802C09313021092140291
:1034F00011CA82E08093180210921302F7CF109243
:10350000180210921302C093140204CA10922802E7
:103510001092220210921C02109216020E94930630
:1035200062E370E080E090E00E944C040E94AC06F0
:1035300062E370E080E090E00E944C040E947A0612
:103540008AEA94E00E94E5070E947A0612CA811175
:103550002CCA1092160227CA109210020E944F061F
:1035600082EF94E00E94E70749CAC0931202C09319
:103570000D0210920E025BCA82E08093120210923A
:103580000D02F7CF1092120210920D02C0930E029C
:103590004ECA10921002C0930F020E944F068DE394
:1035A00095E00E94E7077CCA811196CA109210022A
:1035B00091CA10920A020E9436068DE695E00E949A
:1035C000E707B5CAC0930C02C09307021092080225
:1035D000C7CA82E080930C0210920702F7CF1092C4
:1035E0000C0210920702C0930802BACA86E08093C8
:1035F000720610928B06D1CA8111EBCA10920A0290
:10360000E6CA882309F4F2CA86E080937206ECCAFF
:103610000E947E0440907306509074066090750678
:10362000709076066419750986099709613C77429E
:103630008940910508F408CB80910A0281110EC0DF
:1036400086E08093770600CB68E270E080E090E04F
:103650000E944C0461E08BE00E945F0310927706A9
:10366000F3CA109204020E94CC0584EB95E00E94FC
:10367000E70715CBC0930602C09301021092020225
:1036800020CB82E08093060210920102F7CF1092C5
:10369000060210920102C093020213CB10920002A4
:1036A0001092400210923A021092340210922E02AE
:1036B000109228021092160210922202109210020A
:1036C00010920A02109204020E94490762E370E01D
:1036D00080E090E00E944C040E94300762E370E0BA
:1036E00080E090E00E944C040E94200762E370E0BA
:1036F00080E090E00E944C040E94070762E370E0C3
:1037000080E090E00E944C040E94930662E370E027
:1037100080E090E00E944C040E94AC0662E370E0FE
:1037200080E090E00E944C040E947A0662E370E020
:1037300080E090E00E944C040E944F0662E370E03B
:1037400080E090E00E944C040E94360662E370E044
:1037500080E090E00E944C040E94CC0583E096E05B
:10376000ECCA811106CB1092040201CB882309F424
:103770003FCBD09383063CCB0E947E0440907F06D3
:1037800050908006609081067090820664197509D9
:103790008609970940907B0650907C0660907D06D4
:1037A00070907E06461657066806790608F046CBE6
:1037B000D093830643CB61E08EE00E945F031092BA
:1037C00083063CCBF999FECF92BD81BDF89A99272B
:1037D00080B50895262FF999FECF1FBA92BD81BDFD
:1037E00020BD0FB6F894FA9AF99A0FBE0196089583
:1037F000A1E21A2EAA1BBB1BFD010DC0AA1FBB1FF5
:10380000EE1FFF1FA217B307E407F50720F0A21B66
:10381000B30BE40BF50B661F771F881F991F1A94D3
:1038200069F760957095809590959B01AC01BD01FD
:10383000CF010895EE0FFF1F881F8BBF0790F691F1
:10384000E02D1994F894FFCF010000010000000062
:103850000001000000000001000000000001000065
:103860000000000100000000000100000000000155
:103870000000000000010000000000010000000046
:103880000001000000000001000000000000003501
:10389000029501C2018202F301D101E5010D0A0086
:1038A0000A0A0A0909092048554745204C4F4F503C
:1038B0002054494D453A20000A0A0A000A204E3198
:1038C0005F53315F627574205072657373002F6EA1
:1038D0004E315F53315F6275742053696E676C655A
:1038E000000A4E315F53315F627574205472697003
:1038F0006C65200A000A0A09094E315F53315F6284
:10390000757420204E49474854204D4F4445204F60
:103910004E0A0A004E315F53315F627574206D7537
:103920006C746920436C69636B733A20000A204E03
:10393000325F53315F627574205072657373002F6C
:103940006E4E325F53315F6275742053696E676CDF
:1039500065000A4E325F53315F62757420446F75A3
:10396000626C650A000A0A09094E325F53315F62D0
:10397000757420204E49474854204D4F4445204FF0
:103980004E0A0A004E325F53315F627574206D75C6
:103990006C746920436C69636B733A20000A204E93
:1039A000325F545241434B5F6275742050726573AD
:1039B00073002F6E4E325F545241434B5F627574F9
:1039C0002053696E676C65000A0A09094E325F541C
:1039D0005241434B5F62757420204E494748542042
:1039E0004D4F4445204F4E0A0A004E325F5452411B
:1039F000434B5F627574206D756C746920436C690C
:103A0000636B733A20000A204E335F53315F627557
:103A100074205072657373002F6E4E335F53315FA5
:103A20006275742053696E676C65000A4E335F538C
:103A3000315F62757420446F75626C650A004E33A5
:103A40005F53315F627574206D756C746920436CCF
:103A500069636B733A20000A204E345F53315F6212
:103A60007574205072657373002F6E4E345F53313E
:103A70005F6275742053696E676C65000A4E345F2F
:103A800053315F62757420446F75626C650A000A79
:103A90000A09094E345F53315F62757420204E4924
:103AA000474854204D4F4445204F4E0A0A004E349B
:103AB0005F53315F627574206D756C746920436C5F
:103AC00069636B733A20004E345F54312050726545
:103AD0007373004E345F54312053696E676C650A0E
:103AE000004E345F747261636B20446F75626C6565
:103AF0000A000A0A09094E3420747261636B20209F
:103B00004E49474854204D4F4445204F4E0A0A0025
:103B10004E345F747261636B206D756C7469204301
:103B20006C69636B733A20000A204E355F53315F36
:103B3000627574205072657373002F6E4E355F533B
:103B4000315F6275742053696E676C65000A4E358B
:103B50005F53315F62757420547269706C650A003E
:103B60004E355F73706F74732E6D6F6465203D20EA
:103B70000009204E355F73706F74732E6C616D7029
:103B800032203D20004E3520486F6C6465640A0089
:103B90004E355F53315F627574206D756C746920AA
:103BA000436C69636B733A20004E362053312050CA
:103BB00072657373004E365F53312053696E676CC4
:103BC000650A004E365F533120446F75626C650A9A
:103BD000004E365F5331206D756C746920436C69FB
:103BE000636B733A20000A204E375F535F4741549E
:103BF000455F627574205072657373002F6E4E3787
:103C00005F535F474154455F6275742053696E6727
:103C10006C65000A4E375F535F474154455F6275DC
:103C20007420446F75626C650A000A0A09094E37F0
:103C30005F535F474154455F62757420436F6D6504
:103C400020686F6D65204F4E0A0A000A0A09094E66
:103C5000375F535F474154455F62757420476F205B
:103C60006F75742E204279652E2E2E200A0A004E82
:103C7000375F535F474154455F627574206D756CC3
:0C3C8000746920436C69636B733A200088
:020000040003F7
:10E000000D9489F10D94B2F10D94B2F10D94B2F129
:10E010000D94B2F10D94B2F10D94B2F10D94B2F1F0
:10E020000D94B2F10D94B2F10D94B2F10D94B2F1E0
:10E030000D94B2F10D94B2F10D94B2F10D94B2F1D0
:10E040000D94B2F10D94B2F10D94B2F10D94B2F1C0
:10E050000D94B2F10D94B2F10D94B2F10D94B2F1B0
:10E060000D94B2F10D94B2F10D94B2F10D94B2F1A0
:10E070000D94B2F10D94B2F10D94B2F10D94B2F190
:10E080000D94B2F10D94B2F10D94B2F10D94B2F180
:10E090000D94B2F10D94B2F10D94B2F10D94B2F170
:10E0A0000D94B2F10D94B2F10D94B2F10D94B2F160
:10E0B0000D94B2F10D94B2F10D94B2F10D94B2F150
:10E0C0000D94B2F10D94B2F10D94B2F10D94B2F140
:10E0D0000D94B2F10D94B2F10D94B2F10D94B2F130
:10E0E0000D94B2F141546D656761323536300041AF
:10E0F000726475696E6F206578706C6F72657220DE
:10E1000073746B3530305632206279204D4C530099
:10E11000426F6F746C6F616465723E004875683F52
:10E1200000436F6D70696C6564206F6E203D200048
:10E130004350552054797065202020203D20005FF9
:10E140005F4156525F415243485F5F3D2000415658
:10E1500052204C696243205665723D20004743437C
:10E160002056657273696F6E203D20004350552024
:10E1700049442020202020203D20004C6F7720663D
:10E18000757365202020203D20004869676820665F
:10E190007573652020203D200045787420667573D6
:10E1A00065202020203D20004C6F636B2066757336
:10E1B000652020203D20004D617220203720323024
:10E1C000313300312E362E3800342E332E350056A2
:10E1D00023202020414444522020206F7020636F70
:10E1E00064652020202020696E73747275637469E1
:10E1F0006F6E2061646472202020496E74657272B3
:10E20000757074006E6F20766563746F7200726A49
:10E210006D702020006A6D70200057686174207056
:10E220006F72743A00506F7274206E6F7420737541
:10E2300070706F72746564004D7573742062652030
:10E2400061206C6574746572002000577269747483
:10E25000696E672045450052656164696E672045B7
:10E26000450045452065727220636E743D00504F35
:10E27000525400303D5A65726F2061646472003FF1
:10E280003D43505520737461747300403D454550C3
:10E29000524F4D207465737400423D426C696E6B41
:10E2A000204C454400453D44756D70204545505215
:10E2B0004F4D00463D44756D7020464C415348001B
:10E2C000483D48656C70004C3D4C69737420492F83
:10E2D0004F20506F72747300513D51756974005234
:10E2E0003D44756D702052414D00563D73686F7707
:10E2F00020696E7465727275707420566563746FF0
:10E30000727300593D506F727420626C696E6B00BD
:10E310002A0011241FBECFEFD1E2DEBFCDBF01E046
:10E320000CBF12E0A0E0B2E0EEE1FDEF03E00BBFB6
:10E3300002C007900D92A030B107D9F712E0A0E01B
:10E34000B2E001C01D92AE30B107E1F70F9460F367
:10E350000D948DFE01E20EBF0FEF0DBF11241FBE05
:10E360000D9460F30D9400F020E030E040ED57E0B4
:10E3700005C0FA013197F1F72F5F3F4F2817390792
:10E38000C0F308959C01260F311DC901A0E0B0E043
:10E390002F5F3F4FABBFFC018791882361F08093D3
:10E3A000C6008091C00086FFFCCF8091C0008064D1
:10E3B0008093C000EACF08958DE08093C6008091DD
:10E3C000C00086FFFCCF8091C00080648093C000B5
:10E3D0008AE08093C6008091C00086FFFCCF8091C8
:10E3E000C00080648093C00008950F94C2F10F9420
:10E3F000DCF10895FC019081992359F09093C600B7
:10E400008091C00086FFFCCF8091C0008064809323
:10E41000C0003196992379F70895282F982F929567
:10E420009F70892F805D8A3308F0895F8093C600D2
:10E430008091C00086FFFCCF8091C00080648093F3
:10E44000C000822F8F70982F905D9A3308F0995FEB
:10E450009093C6008091C00086FFFCCF8091C000E1
:10E4600080648093C00008959C01FB01853691056E
:10E470001CF46330710594F0C90164E670E00F94F8
:10E480002EFE605D7F4F6093C6008091C00086FFC6
:10E49000FCCF8091C00080648093C0002B30310598
:10E4A00014F43297B4F0C90164E670E00F942EFEC4
:10E4B0006AE070E00F942EFE605D7F4F6093C600AF
:10E4C0008091C00086FFFCCF8091C0008064809363
:10E4D000C000C9016AE070E00F942EFEC0968093E0
:10E4E000C6008091C00086FFFCCF8091C000806490
:10E4F0008093C00008951F93182F8EE692EE60E07F
:10E500000F94C2F11093C6008091C00086FFFCCF2B
:10E510008091C00080648093C0000F94DCF11F9153
:10E5200008952F923F924F925F926F927F928F92B7
:10E530009F92AF92BF92CF92DF92EF92FF920F9392
:10E540001F93DF93CF93CDB7DEB762970FB6F894E2
:10E55000DEBF0FBECDBF382E622ECA01DB015C01CB
:10E560006D01772420E2222E2E010894411C511CBB
:10E570008BC081E0A81680E0B80681E0C80680E084
:10E58000D80628F0C601AA27BB270F940DF2BB2797
:10E59000AD2D9C2D8B2D0F940DF28A2D0F940DF225
:10E5A0002092C6008091C00086FFFCCF8091C00001
:10E5B00080648093C0009DE29093C6008091C0006B
:10E5C00086FFFCCF8091C00080648093C0002092C1
:10E5D000C6008091C00086FFFCCF8091C00080649F
:10E5E0008093C00019828601750188249924A1E0D6
:10E5F0003A1651F03A1620F0B2E03B1661F409C029
:10E600000BBFF701779007C0C7010F9477FE782EF4
:10E6100002C0F7017080872D0F940DF22092C60082
:10E620008091C00086FFFCCF8091C0008064809301
:10E63000C000872D8052F401EF70F0708F3520F408
:10E64000E40DF51D708204C0E40DF51D8EE280839B
:10E650000894E11CF11C011D111D0894811C911CE2
:10E6600090E18916910409F0C2CF80E190E0A0E02A
:10E67000B0E0A80EB91ECA1EDB1E198AC2010F9493
:10E68000FAF10F94DCF16A94662009F072CF629679
:10E690000FB6F894DEBF0FBECDBFCF91DF911F91B3
:10E6A0000F91FF90EF90DF90CF90BF90AF909F9031
:10E6B0008F907F906F905F904F903F902F90089534
:10E6C0002F923F924F925F926F927F928F929F9282
:10E6D000AF92BF92CF92DF92EF92FF920F931F9370
:10E6E000DF93CF93CDB7DEB7CD53D1400FB6F894BB
:10E6F000DEBF0FBECDBF01E20EBF0FEF0DBF94B75F
:10E70000F894A89514BE80916000886180936000A1
:10E7100010926000789493FF05C0E0910002F091A0
:10E7200001021995279A2F9A8091C00082608093E8
:10E73000C00080E18093C40088E18093C1000000A4
:10E74000EE24FF24870144E0A42EB12CCC24DD2448
:10E7500024C0C5010197F1F70894E11CF11C011DCB
:10E76000111D21E2E2162EE4F20620E0020720E06D
:10E77000120718F031E0C32ED12CC801B70127ECE5
:10E780003BE140E050E00F9441FE611571058105C9
:10E79000910519F485B1805885B98091C00087FD35
:10E7A00003C0C114D104A9F2A6014F5F5F4FC25E3E
:10E7B000DE4F59834883CE51D140C25EDE4F8881FF
:10E7C0009981CE51D140019711F00D9410FEC05D9A
:10E7D000DE4F19821882C053D14060E0C15DDE4F28
:10E7E0001882CF52D14088249924C35DDE4F19820C
:10E7F0001882CD52D140C05EDE4F188219821A8233
:10E800001B82C052D140CE5CDE4F188219821A8220
:10E810001B82C253D140EE24FF2487010BBFF701B6
:10E8200007911691C45CDE4F19830883CC53D14005
:10E830000D940BFEC25EDE4F28813981CE51D1404E
:10E840002130310509F52091C600C25EDE4F1982E4
:10E850001882CE51D14022C02F5F3F4F4F4F5F4FA4
:10E86000213082E138078AE7480780E0580780F0C6
:10E87000C45CDE4FE881F981CC53D140EF5FFF4F9C
:10E8800019F0EE27FF27099420E030E040E050E047
:10E890008091C00087FFE0CF2091C600C35DDE4FAE
:10E8A00048815981CD52D1404F5F5F4FC35DDE4FEC
:10E8B00059834883CD52D140213209F063C64A3092
:10E8C000510508F05FC60894811C911C53E0851621
:10E8D000910409F059C600E010E018C081E280936D
:10E8E000C6008091C00086FFFCCF8091C00080648C
:10E8F0008093C0002F5F3F4F2931310579F70F9486
:10E90000DCF10F5F1F4F0530110519F020E030E0FA
:10E91000E5CF10920A0210920B0210920C02109294
:10E920000D02109206021092070210920802109235
:10E930000902109202021092030210920402109235
:10E9400005028FEE90EE60E00F94F5F180E191EE1C
:10E9500060E00F94C2F18091C00087FFFCCF9091DE
:10E96000C600903608F09F759032B8F09093C600BC
:10E970008091C00086FFFCCF8091C00080648093AE
:10E98000C000A0E2A093C6008091C00086FFFCCF2B
:10E990008091C00080648093C000983409F4D7C18E
:10E9A0009934B8F4923409F459C1933458F490333B
:10E9B00019F1903308F4E3C59F33A1F1903409F0C5
:10E9C000DEC5BDC0953409F470C1963409F0D7C5D1
:10E9D00098C1923509F42BC2933538F49C3409F46C
:10E9E000F5C1913509F0CBC518C2963509F445C279
:10E9F000993509F0C4C567C483E792EE62E00F94CD
:10EA0000F5F110920602109207021092080210927D
:10EA1000090210920A0210920B0210920C0210923C
:10EA20000D0213C18FE792EE62E00F94F5F18FEEC5
:10EA300090EE60E00F94F5F181E291EE60E00F94CA
:10EA4000C2F187EB91EE60E00F94F5F180E391EE77
:10EA500060E00F94C2F184EE90EE60E00F94F5F167
:10EA60008FE391EE60E00F94C2F186E090E061E008
:10EA700070E00F9434F20F94DCF18DE591EE60E0DC
:10EA80000F94C2F189EC91EE60E00F94F5F18EE401
:10EA900091EE60E00F94C2F183EC91EE60E00F9490
:10EAA000F5F18CE691EE60E00F94C2F18EE10F94E7
:10EAB0000DF288E90F940DF281E00F940DF20F949E
:10EAC000DCF18BE791EE60E00F94C2F119E0E0E039
:10EAD000F0E010935700E4918E2F0F940DF20F94F5
:10EAE000DCF18AE891EE60E00F94C2F1E3E0F0E03F
:10EAF00010935700E4918E2F0F940DF20F94DCF1D8
:10EB000089E991EE60E00F94C2F1E2E0F0E0109349
:10EB10005700E4918E2F0F940DF20F94DCF188EAE8
:10EB200091EE60E00F94C2F1E1E0F0E01093570045
:10EB30001491812F0F940DF20F94DCF107CF8BE825
:10EB400092EE62E00F94F5F18BE492EE60E00F94A8
:10EB5000F5F10F94DCF100E010E019C0C8016F2D51
:10EB60000F947FFEFF2031F489E492EE60E00F9471
:10EB7000C2F10BC0F092C6008091C00086FFFCCFAE
:10EB80008091C00080648093C0000F5F1F4FC80158
:10EB900081519F41A0E0B0E0ABBFFC01F790BAE229
:10EBA000FB1621F0E2E000301E07C1F60F94DCF105
:10EBB0000F94DCF187E592EE60E00F94F5F10F948D
:10EBC000DCF1CC24DD2400E010E01EC0C8010F946D
:10EBD00077FEF82E882331F489E492EE60E00F94FA
:10EBE000C2F10BC08093C6008091C00086FFFCCFAD
:10EBF0008091C00080648093C000FE1419F00894D6
:10EC0000C11CD11C0F5F1F4FC80181519F41A0E063
:10EC1000B0E0ABBFFC01E790FAE2EF1621F022E092
:10EC20000030120799F60F94DCF10F94DCF182E6C4
:10EC300092EE60E00F94C2F1C60161E070E00F94C3
:10EC400034F20F94DCF10F94DCF110920202109276
:10EC50000302109204021092050278CE89E992EE26
:10EC600062E00F94F5F1279A2F9A16C02F9880E052
:10EC700090E0E0EDF7E03197F1F7019684369105E9
:10EC8000C1F72F9A80E090E0E0EDF7E03197F1F7DF
:10EC9000019684369105C1F78091C00087FFE6CFC9
:10ECA0008091C00087FFFCCF64C485EA92EE62E0E9
:10ECB0000F94F5F140910202509103026091040219
:10ECC0007091050281E020E10F9491F2809102029F
:10ECD00090910302A0910402B091050280509F4FD1
:10ECE000AF4FBF4F8093020290930302A0930402A0
:10ECF000B093050280509041A040B04008F426CE69
:10ED0000A4CF83EB92EE62E00F94F5F140910602FE
:10ED100050910702609108027091090280E020E1A1
:10ED20000F9491F28091060290910702A09108023F
:10ED3000B091090280509F4FAF4FBF4F80930602A2
:10ED400090930702A0930802B0930902FFCD80ECD4
:10ED500092EE62E00F94F5F183E792EE60E00F949B
:10ED6000F5F18FE792EE60E00F94F5F18BE892EE0B
:10ED700060E00F94F5F189E992EE60E00F94F5F10F
:10ED800085EA92EE60E00F94F5F183EB92EE60E09D
:10ED90000F94F5F180EC92EE60E00F94F5F187ECC2
:10EDA00092EE60E00F94F5F188ED92EE60E00F9442
:10EDB000F5F18FED92EE60E00F94F5F18AEE92EEB0
:10EDC00060E00F94F5F183E093EEBDCD87EC92EE19
:10EDD00062E00F94F5F181E40F947BF282E40F94EA
:10EDE0007BF283E40F947BF284E40F947BF285E45E
:10EDF0000F947BF286E40F947BF287E40F947BF20E
:10EE000088E40F947BF28AE40F947BF28BE40F94F6
:10EE10007BF28CE40F947BF299CD88ED92EE62E068
:10EE20000F94F5F1772473948824992409C48FED05
:10EE300092EE62E00F94F5F140910A0250910B02BC
:10EE400060910C0270910D0282E020E10F9491F22A
:10EE500080910A0290910B02A0910C02B0910D02D8
:10EE600080509F4FAF4FBF4F80930A0290930B0289
:10EE7000A0930C02B0930D0269CD8AEE92EE62E08F
:10EE80000F94F5F184EE90EE60E00F94F5F18FECC5
:10EE900091EE60E00F94F5F1662477244301CC5D98
:10EEA000DE4F19821882C452D140D401C301B695F5
:10EEB000A79597958795CA5DDE4F88839983AA8326
:10EEC000BB83C652D140CC5DDE4FA881B981C4520C
:10EED000D1401196CC5DDE4FB983A883C452D14096
:10EEE000CD0162E070E00F9434F2B0E2B093C6005E
:10EEF0008091C00086FFFCCF8091C0008064809329
:10EF0000C000EDE2E093C6008091C00086FFFCCF18
:10EF10008091C00080648093C000F0E2F093C6004E
:10EF20008091C00086FFFCCF8091C00080648093F8
:10EF3000C000CA5DDE4FE880F9800A811B81C6529D
:10EF4000D140BB27A12F902F8F2D0F940DF2CA5DBA
:10EF5000DE4F8881C652D1400F940DF2B0E2FB2EF5
:10EF6000F092C6008091C00086FFFCCF8091C00067
:10EF700080648093C0000DE30093C6008091C000C0
:10EF800086FFFCCF8091C00080648093C00010E2B7
:10EF90001093C6008091C00086FFFCCF8091C00016
:10EFA00080648093C0008BBEF3012791C65DDE4F65
:10EFB0002883CA52D140A22EBB24CC24DD2408943D
:10EFC000611C711C811C911C8BBEF3018791282E42
:10EFD0003324442455240894611C711C811C911C09
:10EFE0008BBEF3013791C55DDE4F3883CB52D140E4
:10EFF0000894611C711C811C911C8BBEF30147910C
:10F00000C45DDE4F4883CC52D140ADEFEA2EAFEF66
:10F01000FA2EAFEF0A2FAFEF1A2F6E0C7F1C801E57
:10F02000911E142D032DF22CEE24EA0CFB1C0C1D5A
:10F030001D1D0F940DF220E22093C6008091C000A8
:10F0400086FFFCCF8091C00080648093C000C65DC5
:10F05000DE4F8881CA52D1400F940DF230E23093D6
:10F06000C6008091C00086FFFCCF8091C000806404
:10F070008093C000C45DDE4F8881CC52D1400F9494
:10F080000DF240E24093C6008091C00086FFFCCFA5
:10F090008091C00080648093C000C55DDE4F888190
:10F0A000CB52D1400F940DF250E25093C6008091A4
:10F0B000C00086FFFCCF8091C00080648093C000B8
:10F0C0008FEFE8168FEFF80680E0080780E018075A
:10F0D00031F484E092EE60E00F94C2F1DFC0D80119
:10F0E000C7018070907CA070B0708050904CA040A0
:10F0F000B040D1F52FEF3FE340E050E0E222F322B1
:10F1000004231523CA5DDE4FA880B980CA80DB8046
:10F11000C652D140AE0CBF1CC01ED11EAA0CBB1CD7
:10F12000CC1CDD1C8EE092EE60E00F94C2F1BB2798
:10F13000A12F902F8F2D0F940DF28E2D0F940DF285
:10F1400030E23093C6008091C00086FFFCCF8091F2
:10F15000C00080648093C0004EE34093C60080915D
:10F16000C00086FFFCCF87C08EE09EEFA0E0B0E03D
:10F17000E822F9220A231B239CE0E91694E9F90608
:10F1800090E0090790E0190709F088C0C45DDE4FE0
:10F19000A881CC52D140EA2EFF2400E010E0102FCD
:10F1A0000F2DFE2CEE24C55DDE4FB881CB52D14031
:10F1B000EB0EF11C011D111DD601C501817090706F
:10F1C000A070B070DC0199278827E80EF91E0A1F8D
:10F1D0001B1F20EF30E040E050E0A222B322C42207
:10F1E000D52241E1AA0CBB1CCC1CDD1C4A95D1F7F1
:10F1F000EA0CFB1C0C1D1D1D81E090E0A0E0B0E0BE
:10F20000282239224A225B2235E1220C331C441C7D
:10F21000551C3A95D1F7E20CF31C041D151D57013E
:10F220006801AA0CBB1CCC1CDD1C85E192EE60E0E1
:10F230000F94C2F1C801AA27BB270F940DF2BB2778
:10F24000A12F902F8F2D0F940DF28E2D0F940DF274
:10F2500090E29093C6008091C00086FFFCCF809121
:10F26000C00080648093C000AEE3A093C60080918C
:10F27000C00086FFFCCF8091C00080648093C000F6
:10F28000C601AA27BB270F940DF2BB27AD2D9C2DDD
:10F290008B2D0F940DF28A2D0F940DF20F94DCF14B
:10F2A000CC5DDE4FE881F981C452D140F99709F471
:10F2B0004DCBF4E0EF2EF12C012D112D6E0C7F1CA7
:10F2C000801E911EF2CD83E093EE62E00F94F5F183
:10F2D0008AE192EE60E00F94C2F18091C00087FF56
:10F2E000FCCF1091C6001F751093C6008091C0001E
:10F2F00086FFFCCF8091C00080648093C0000F9493
:10F30000DCF1812F81548A3108F036C1163409F4BA
:10F3100095C0173490F4133409F44EC0143430F40B
:10F320001134F1F0123409F01DC130C0143409F465
:10F3300059C0153409F016C16BC01A3409F4C4C0A1
:10F340001B3438F4173409F48FC0183409F00AC19B
:10F35000A1C01B3409F4D2C01C3409F003C1E8C0B9
:10F360008FEF81B90DC082B1809582B980E090E0C5
:10F37000E0EDF7E03197F1F70196883C9105C1F790
:10F380008091C00087FFEFCF12B8EFC08FEF84B934
:10F390000DC085B1809585B980E090E0E0EDF7E0A3
:10F3A0003197F1F70196883C9105C1F78091C00033
:10F3B00087FFEFCF15B8D9C08FEF87B90DC088B1DF
:10F3C000809588B980E090E0E0EDF7E03197F1F7C3
:10F3D0000196883C9105C1F78091C00087FFEFCF6F
:10F3E00018B8C3C08FEF8AB90DC08BB180958BB9A7
:10F3F00080E090E0E0EDF7E03197F1F70196883C8E
:10F400009105C1F78091C00087FFEFCF1BB8ADC059
:10F410008FEF8DB90DC08EB180958EB980E090E0F0
:10F42000E0EDF7E03197F1F70196883C9105C1F7DF
:10F430008091C00087FFEFCF1EB897C08FEF80BBD1
:10F440000DC081B3809581BB80E090E0E0EDF7E0F6
:10F450003197F1F70196883C9105C1F78091C00082
:10F4600087FFEFCF11BA81C08FEF83BB0DC084B38C
:10F47000809584BB80E090E0E0EDF7E03197F1F714
:10F480000196883C9105C1F78091C00087FFEFCFBE
:10F4900014BA6BC08FEF809301010FC080910201FD
:10F4A00080958093020180E090E0E0EDF7E03197F5
:10F4B000F1F70196883C9105C1F78091C00087FF64
:10F4C000EDCF1092020151C08FEF809304010FC065
:10F4D0008091050180958093050180E090E0E0ED4A
:10F4E000F7E03197F1F70196883C9105C1F78091DB
:10F4F000C00087FFEDCF1092050137C08FEF8093DA
:10F5000007010FC08091080180958093080180E079
:10F5100090E0E0EDF7E03197F1F70196883C910536
:10F52000C1F78091C00087FFEDCF109208011DC088
:10F530008FEF80930A010FC080910B01809580931B
:10F540000B0180E090E0E0EDF7E03197F1F70196F4
:10F55000883C9105C1F78091C00087FFEDCF1092E4
:10F560000B0103C085E292EEEEC98091C00087FFD7
:10F57000FCCF8091C600EAC988E392EEE4C98CE131
:10F5800091EEE1C988249924933011F1943028F444
:10F59000913089F09230B8F408C0953061F195301F
:10F5A000F0F0963009F048C043C02B3109F042C951
:10F5B00091E06BE13FC96227C15DDE4F2883CF52E6
:10F5C000D14092E037C9B22FA0E0622793E032C960
:10F5D000822F90E0A82BB92B622794E02BC92E3004
:10F5E00009F039C3622795E0C05DDE4F19821882A9
:10F5F000C053D1401FC9E1E0F0E0EC0FFD1FC05D3A
:10F60000DE4F08811981C053D140E00FF11F2083E4
:10F610000F5F1F4FC05DDE4F19830883C053D14079
:10F6200062270A171B0709F005C9D80196E002C92D
:10F63000261709F010C303C0973009F0FBC87724E0
:10F640009981933109F412C19431C8F4963009F4C8
:10F65000D8C0973050F4923009F406C1933009F4C1
:10F660006DC0913009F059C253C0913109F477C08F
:10F67000923108F0BBC0903109F04FC2F5C098310B
:10F6800009F487C0993150F4953109F4EFC09531F0
:10F6900008F4C6C1963109F040C2C2C19A3109F4DA
:10F6A0006CC09A3108F491C09B3109F45BC09D3164
:10F6B00009F033C29D81903359F48F81882311F46E
:10F6C0009EE11CC0813011F091E018C098E916C08D
:10F6D000892F807591F0903539F4E0E0F0E089E011
:10F6E0008093570094910AC0983539F4E3E0F0E034
:10F6F00089E080935700949101C090E01A821B82A8
:10F700008D818C831D829E831F8227E030E009C299
:10F710001A8288E08B8381E48C8386E58D8382E581
:10F720008E8389E48F8383E5888780E589878FE5E9
:10F730008A8782E38B872BE030E0F3C18A818139AD
:10F7400041F0823941F0803911F48FE005C080E04A
:10F7500003C082E001C08AE01A828B8344C0772410
:10F76000739482C08D81882311F48EE12CC0813086
:10F7700011F081E028C088E926C01A82E1E0F0E0BB
:10F7800089E08093570084918B831C8224E030E0D1
:10F79000C8C18B81803589F48C81883039F4E2E0EE
:10F7A000F0E089E08093570084910DC0E0E0F0E044
:10F7B00089E080935700849106C0E3E0F0E089E09F
:10F7C0008093570084911A82DFCF8D81836C99E0FA
:10F7D000E1E0F0E0082E90935700E89507B600FCB2
:10F7E000FDCF1A821B8223E030E09BC180EC8A832C
:10F7F000CE5CDE4F188219821A821B82C253D1401E
:10F800008EC18A8190E0A0E0B0E0582F44273327D2
:10F8100022278B8190E0A0E0B0E0DC0199278827C7
:10F82000282B392B4A2B5B2B8D8190E0A0E0B0E098
:10F83000282B392B4A2B5B2B8C8190E0A0E0B0E089
:10F84000BA2FA92F982F8827282B392B4A2B5B2BCF
:10F85000220F331F441F551FC05EDE4F288339839C
:10F860004A835B83C052D1401A8259C13A81C95C34
:10F87000DE4F3883C753D140CA5CDE4F1882C6536F
:10F88000D1408B81C82EDD24CA5CDE4F488159816E
:10F89000C653D140C42AD52A933109F082C0CE5C28
:10F8A000DE4F88819981AA81BB81C253D1408050AB
:10F8B000904CA340B04030F583E0CE5CDE4FE88052
:10F8C000F9800A811B81C253D140F70100935B008C
:10F8D00080935700E89507B600FCFDCFCE5CDE4F65
:10F8E000088119812A813B81C253D14000501F4FAA
:10F8F0002F4F3F4FCE5CDE4F088319832A833B8313
:10F90000C253D140C05EDE4F488159816A817B81FC
:10F91000C052D140DE011B9631E08C9111962C91A2
:10F9200011971296C75CDE4F2883C953D140C85C3B
:10F93000DE4F1882C853D14090E0C85CDE4FE881AA
:10F94000F981C853D1408E2B9F2B0C01FA01609393
:10F950005B0030935700E89511244E5F5F4F6F4F67
:10F960007F4F0EEFE02E0FEFF02ECE0CDF1CC114F8
:10F97000D10499F685E0C05EDE4F088119812A81A5
:10F980003B81C052D140F80120935B008093570027
:10F99000E89507B600FCFDCF81E180935700E8951C
:10F9A00035C0C05EDE4F88819981AA81BB81C0527B
:10F9B000D140B695A795979587957C018601ABE0D8
:10F9C000AA2EB12CAC0EBD1E0BC0D5016D915D01F0
:10F9D000C7010F947FFE0894E11CF11C01501040F8
:10F9E0000115110591F7A60160E070E0440F551F65
:10F9F000661F771FC05EDE4FE880F9800A811B8199
:10FA0000C052D1404E0D5F1D601F711F1A82C05E33
:10FA1000DE4F488359836A837B83C052D1407FC0C5
:10FA2000FA80C55CDE4FF882CB53D140C65CDE4F16
:10FA30001882CA53D1408B81C82EDD24C65CDE4FAC
:10FA400008811981CA53D140C02AD12A1A828981DA
:10FA5000BE016D5F7F4F843121F59601C05EDE4FA0
:10FA6000E880F9800A811B81C052D1400BBFF701A9
:10FA700087919691DB018C9311969C936E5F7F4FDB
:10FA8000D801C7010296A11DB11DC05EDE4F88835B
:10FA90009983AA83BB83C052D14022503040F1F6F3
:10FAA00036C0C05EDE4F288139814A815B81C052F9
:10FAB000D1400894C108D108760100E010E0089414
:10FAC000C11CD11C0894E11CF11C011D111DE20E8A
:10FAD000F31E041F151F21BDBB27A52F942F832FB5
:10FAE00082BD2F5F3F4F4F4F5F4FF89A80B5DB01CC
:10FAF0008D93BD012E153F054007510761F7C05E8C
:10FB0000DE4F288339834A835B83C052D1409601FC
:10FB10002D5F3F4FFB01108204C080EC8A8322E0FE
:10FB200030E08BE18093C6008091C00086FFFCCF5F
:10FB30008091C00080648093C000C15DDE4FF88179
:10FB4000CF52D140F093C6008091C00086FFFCCF19
:10FB50008091C00080648093C000432F3093C60022
:10FB60008091C00086FFFCCF8091C00080648093AC
:10FB7000C000922F2093C6008091C00086FFFCCF6A
:10FB80008091C00080648093C0008EE08093C600A6
:10FB90008091C00086FFFCCF8091C000806480937C
:10FBA000C00065E1C15DDE4FE880CF52D1406E25D7
:10FBB00069276427FE01319610C090819093C6009A
:10FBC0008091C00086FFFCCF31968091C000806498
:10FBD0008093C0006927215030402115310569F715
:10FBE0006093C6008091C00086FFFCCF8091C0006A
:10FBF00080648093C00085B1805885B9772081F4F6
:10FC0000C15DDE4F0881CF52D1400F5FC15DDE4F35
:10FC10000883CF52D14090E0A0E0B0E00D941AF4F8
:10FC200027982F9880E090E020ED37E0F901319798
:10FC3000F1F7019684369105C9F700008091C00064
:10FC40008D7F8093C00081E180935700E895EE2777
:10FC5000FF270994FFCF90E00D941AF497FB092E2B
:10FC600007260AD077FD04D02ED006D000201AF443
:10FC7000709561957F4F0895F6F7909581959F4F08
:10FC80000895A1E21A2EAA1BBB1BFD010DC0AA1FDD
:10FC9000BB1FEE1FFF1FA217B307E407F50720F0F5
:10FCA000A21BB30BE40BF50B661F771F881F991F70
:10FCB0001A9469F760957095809590959B01AC01B9
:10FCC000BD01CF010895AA1BBB1B51E107C0AA1FAC
:10FCD000BB1FA617B70710F0A61BB70B881F991FED
:10FCE0005A95A9F780959095BC01CD010895F99991
:10FCF000FECF92BD81BDF89A992780B50895262F31
:10FD0000F999FECF1FBA92BD81BD20BD0FB6F89400
:0EFD1000FA9AF99A0FBE01960895F894FFCF63
:00000001FF
